:0400000007EF00F016
:10000800048209ED00F03AEF00F00600F2A40FEFC9
:1000180000F011EF00F038EF00F0F294014A022AE4
:10002800640E01180210D8A41CEF00F01EEF00F0B7
:1000380034EF00F089BA23EF00F026EF00F0010E4C
:1000480027EF00F0000EFF0A036E033A03468950BB
:100058000318DF0B0318896E000E026E630E016E23
:10006800FF0ED76EFE0ED66E04921100B80EF66E15
:10007800000EF76E000EF86E0900F5CF01F00900CA
:10008800F5CF02F00490049200014BEF00F0929A31
:10009800899A080ED56EF28EF28CF28AFF0ED76E10
:1000A800FE0ED66EF294D58E58EF00F007EF00F0F2
:0200B8006300E3
:020000040020DA
:08000000FFFFFFFFFFFFFFFF00
:020000040030CA
:0E00000000051F1FFF8385FF0FC00FE00F409C
:00000001FF
