:0400000007EF00F016
:10000800038209ED00F05DEF00F00600F0A00FEFAD
:1000180000F011EF00F050EF00F0F09001500210E6
:10002800D8A419EF00F01BEF00F025EF00F089B815
:1000380020EF00F022EF00F025EF00F0898850EF64
:1000480000F089A82AEF00F02CEF00F039EF00F05B
:1000580001500210D8A433EF00F035EF00F039EF6B
:1000680000F0014A022A50EF00F089A83EEF00F0A4
:1000780040EF00F050EF00F001040210D8A447EF61
:1000880000F049EF00F050EF00F0000E026E000E95
:10009800016E899850EF00F00392110092989382B4
:1000A8008998F086F19AF28EF09059EF00F007EFF8
:1000B80000F0026A016A03900392000152EF00F017
:020000040020DA
:08000000FFFFFFFFFFFFFFFF00
:020000040030CA
:0E00000000051F1FFF8385FF0FC00FE00F409C
:00000001FF
