:0400000095EF09F07F
:10080000000A56616C7565206F6620496E707574BC
:10081000206B202564000A56616C756520326B20C0
:100820002564000A56616C756520336B20256400D1
:100830000A56616C756520346B20256400001FC06A
:1008400037F020C038F021C039F022C03AF023C080
:100850003BF024C03CF025C03DF026C03EF03EBE3B
:1008600034EF04F037EF04F0010E38EF04F0000E1F
:10087000356E366A35503610D8B441EF04F043EF88
:1008800004F053EF04F03E1E3D1E3C1E3B1E3A1E7C
:10089000391E381E376C000E382239223A223B228C
:1008A0003C223D223E22000165BF59EF04F05BEF80
:1008B00004F05CEF04F0669365BF69EF04F06551E6
:1008C00006E16405D8B067EF04F069EF04F06FEF5C
:1008D00004F0000E326E010E316E73EF04F064C04E
:1008E00031F065C032F062C033F063C034F035508F
:1008F0003610D8A47EEF04F080EF04F087EF04F008
:1009000066A585EF04F087EF04F08AEF04F0330664
:10091000D8A03406000E406E1F0E3F6E000E876F8B
:100920000EEF05F03F06D8A04006680E3F24D96EB2
:10093000000E4020DA6E37C001F038C002F039C036
:1009400003F03AC004F03BC005F03CC006F03DC0E7
:1009500007F03EC008F00A0E096E000E0A6E000E87
:100960000B6E000E0C6E000E0D6E000E0E6E000E65
:100970000F6E000E106E2EEC07F001C027F002C0C3
:1009800028F003C029F004C02AF005C02BF006C0EF
:100990002CF007C02DF008C02EF027C013F029C09E
:1009A00014F034EC09F01350300FDF6E3106D8A08C
:1009B00032063306D8A0340637C001F038C002F042
:1009C00039C003F03AC004F03BC005F03CC006F06B
:1009D0003DC007F03EC008F00A0E096E000E0A6E18
:1009E000000E0B6E000E0C6E000E0D6E000E0E6EE5
:1009F000000E0F6E000E106E6AEC06F001C037F0AC
:100A000002C038F003C039F004C03AF005C03BF032
:100A100006C03CF007C03DF008C03EF040BE19EFF4
:100A200005F0405008E13F04D8A019EF05F01BEF96
:100A300005F04CEF05F03750381039103A103B10E4
:100A40003C103D103E10D8A428EF05F02AEF05F029
:100A500092EF04F032BE37EF05F0325006E1310478
:100A6000D8B035EF05F037EF05F092EF04F034BE63
:100A700042EF05F0345008E13304D8A042EF05F00E
:100A800044EF05F04CEF05F0000166B34AEF05F0C6
:100A90004CEF05F092EF04F035503610D8A453EF28
:100AA00005F055EF05F05DEF05F0000166A55BEF81
:100AB00005F05DEF05F07BEF05F03F06D8A040069E
:100AC00035503610D8A467EF05F069EF05F06FEFE9
:100AD00005F0000E306E2B0E2F6E73EF05F0000E3A
:100AE000306E2D0E2F6E680E3F24D96E000E402002
:100AF000DA6E2FC0DFFF1DC012F01EC013F0680EAB
:100B00003F24146E000E4020156E33C016F034C022
:100B100017F0E0EC07F012C01DF013C01EF0120039
:100B200043C0D9FF44C0DAFFDECFF6FFDDCFF7FFC9
:100B30000800F550250AD8A4A0EF05F0A2EF05F0B3
:100B40004EEF06F043C0D9FF44C0DAFFDE2A000EA4
:100B5000DD22000E0001636F000E626F62C066F05E
:100B600063C067F06469656943C0D9FF44C0DAFFB8
:100B7000DECFF6FFDDCFF7FF0800F550640AD8B4EA
:100B8000C4EF05F0C6EF05F0D8EF05F043C0D9FF7C
:100B900044C0DAFFDECFF6FFDDCFF7FF0800F550E7
:100BA000690AD8A4D6EF05F0D8EF05F018EF06F0E3
:100BB00043C0D9FF44C0DAFFDE2A000EDD2245C063
:100BC000D9FF46C0DAFFDFCF47F0020EDE26DFCFC7
:100BD00048F0000EDD2247C0D9FF48C0DAFFDECF63
:100BE00049F0DDCF4AF0000E4ABEFF0E4B6E4C6E50
:100BF0004D6E4E6E4F6E506E41C01DF042C01EF0E5
:100C000049C01FF04AC020F04BC021F04CC022F078
:100C10004DC023F04EC024F04FC025F050C026F048
:100C20001FEC04F01DC041F01EC042F069EF06F059
:100C300043C0D9FF44C0DAFFDECFF6FFDDCFF7FFB8
:100C40000800F550250AD8A428EF06F02AEF06F090
:100C500041EF06F043C0D9FF44C0DAFFDE2A000EA0
:100C6000DD22000E036E250E026E41C004F042C06C
:100C700005F096EC08F0000E426E010E416E69EF31
:100C800006F043C0D9FF44C0DAFFDE2A000EDD22A1
:100C9000000E426E000E416E69EF06F043C0D9FFB0
:100CA00044C0DAFFDECFF6FFDDCFF7FF0800F550D6
:100CB000026E036A41C004F042C005F096EC08F0F1
:100CC00043C0D9FF44C0DAFFDE2A000EDD223BEF2D
:100CD00006F01200000E126E10BE73EF06F071EFF8
:100CE00006F085EF06F0101E0F1E0E1E0D1E0C1EC8
:100CF0000B1E0A1E096C000E0A220B220C220D226A
:100D00000E220F221022010E126E08BE8CEF06F08A
:100D10008AEF06F09EEF06F0081E071E061E051E4F
:100D2000041E031E021E016C000E02220322042276
:100D30000522062207220822010E121A20EE13F0C5
:100D4000070EDE6AE806FDE209500A100B100C10CF
:100D50000D100E100F101010D8B4B1EF06F0B3EF55
:100D600006F005EF07F0010E116EC1EF06F0D89006
:100D700009360A360B360C360D360E360F3610365F
:100D8000112A10AEC6EF06F0C8EF06F0B7EF06F076
:100D9000D8901336143615361636173618361936D7
:100DA0001A360950015C0A5002580B5003580C5077
:100DB00004580D5005580E5006580F500758105043
:100DC0000858D8A0E6EF06F0E8EF06F0F9EF06F0D5
:100DD0000950015E0A50025A0B50035A0C50045A33
:100DE0000D50055A0E50065A0F50075A1050085A07
:100DF0001380D89010320F320E320D320C320B327B
:100E00000A320932112EC8EF06F01250D8B40BEF97
:100E100007F00DEF07F01DEF07F01A1E191E181E40
:100E2000171E161E151E141E136C000E14221522FA
:100E300016221722182219221A2213C001F014C0F8
:100E400002F015C003F016C004F017C005F018C07A
:100E500006F019C007F01AC008F01200000E126E5A
:100E600008BE37EF07F035EF07F049EF07F0081E2F
:100E7000071E061E051E041E031E021E016C000E28
:100E80000222032204220522062207220822010E42
:100E9000126E10BE50EF07F04EEF07F060EF07F054
:100EA000101E0F1E0E1E0D1E0C1E0B1E0A1E096CA0
:100EB000000E0A220B220C220D220E220F221022DB
:100EC00009500A100B100C100D100E100F101010FE
:100ED000D8B46DEF07F06FEF07F0B7EF07F0010E32
:100EE000116E7DEF07F0D89009360A360B360C36B6
:100EF0000D360E360F361036112A10AE82EF07F07F
:100F000084EF07F073EF07F00950015C0A500258B4
:100F10000B5003580C5004580D5005580E500658ED
:100F20000F50075810500858D8A099EF07F09BEFC2
:100F300007F0ABEF07F00950015E0A50025A0B5060
:100F4000035A0C50045A0D50055A0E50065A0F50B1
:100F5000075A1050085AD89010320F320E320D3204
:100F60000C320B320A320932112E84EF07F0125084
:100F7000D8B4BDEF07F0BFEF07F0CFEF07F0081EC2
:100F8000071E061E051E041E031E021E016C000E17
:100F9000022203220422052206220722082201C07F
:100FA00001F002C002F003C003F004C004F005C069
:100FB00005F006C006F007C007F008C008F01200F0
:100FC000000166A1E6EF07F0E8EF07F0F2EF07F0A7
:100FD00014C00BF015C00CF012C00DF013C00EF0D1
:100FE00012EC09F017BEF7EF07F0F9EF07F0FFEF8B
:100FF00007F016C01BF017C01CF003EF08F0000E3E
:101000001C6E000E1B6E000E1A6E000E196E15EF90
:1010100008F0000E036E200E026E12C004F013C022
:1010200005F096EC08F0194A1A2A1B50195C1A5060
:10103000800A186E1C50800A1858D8A022EF08F0B9
:1010400024EF08F009EF08F0000166B12AEF08F07C
:101050002CEF08F036EF08F014C00BF015C00CF0C0
:1010600012C00DF013C00EF012EC09F014C001F024
:1010700015C002F054EC09F01B500124126E1C50F4
:101080000220136E1200200EAC6E900EAB6E060E98
:10109000AF6E948E9EAA4FEF08F051EF08F04AEF22
:1010A00008F0AECF8AF000018B6B010E596E080E6E
:1010B0005A6E8AC05BF08BC05CF06FEC09F0160EC4
:1010C000596E080E5A6ED89000018A355B6E8B35CA
:1010D0005C6E6FEC09F0230E596E080E5A6E8AC0D2
:1010E00001F08BC002F0000E046E030E036E82EC62
:1010F00009F001C05BF002C05CF06FEC09F0300E4B
:10110000596E080E5A6E8AC088F08BC089F00001B3
:10111000D89088378937D8908837893788C05BF06E
:1011200089C05CF06FEC09F000EF00F0045005108E
:10113000D8B49DEF08F09FEF08F0A8EF08F0045036
:101140000510D8A4A6EF08F0A8EF08F0ADEF08F05E
:101150000250A2EC09F0E0EF08F020EE09F0045094
:10116000D9260550DA22DE50DE10D8B4BAEF08F0E6
:10117000BCEF08F0D7EF08F020EE09F00450D926B4
:101180000550DA2210EE03F00450E1260550E22269
:10119000DE50E65CE650800A0A6EDE50800A0A588D
:1011A000D8B0D5EF08F0D7EF08F0E0EF08F020EE68
:1011B00003F00450D9260550DA22DE2A000EDD2283
:1011C000120053C057F054C058F0000E0001616F78
:1011D000000E606FFFEF08F051C041F052C042F0C6
:1011E000570E436E000E446E55C045F056C046F093
:1011F00090EC05F04150000160274250612357C038
:10120000F6FF58C0F7FF0800F5500009D8A40BEF0F
:1012100009F00DEF09F0ECEF08F060C051F061C08B
:1012200052F01200000E116E000E106E23EF09F046
:101230000FC002F0036A0DC004F00EC005F096EC7A
:1012400008F0104A112A10500B24D96E11500C20AE
:10125000DA6EDF500F6E0F50D8A431EF09F033EF84
:1012600009F018EF09F0120014BE41EF09F0145014
:1012700006E11304D8B03FEF09F041EF09F04FEF5A
:1012800009F013C015F014C016F0151E161E154AED
:10129000162A15C013F016C014F053EF09F013C04E
:1012A00013F014C014F0120001C003F002C004F0E7
:1012B0005CEF09F0014A022A01C0D9FF02C0DAFF3F
:1012C000DF50D8A466EF09F068EF09F05AEF09F093
:1012D0000350015C016E04500258026E12005B0E56
:1012E0005D6E000E5E6E000E516E000E526E59C0A5
:1012F00053F05AC054F05D0E556E000E566EE1EC80
:1013000008F0120001500302F3CF05F0F4CF06F00D
:1013100001500402F350062602500302F350062641
:1013200005C001F006C002F0120000EE60F0280EC9
:10133000EE6AE806FDE1000EF86E080EF76E000199
:1013400043EF08F0016E9EA8A8EF09F0AAEF09F09C
:0A135000A3EF09F001C0ADFF120089
:020000040020DA
:08000000FFFFFFFFFFFFFFFF00
:020000040030CA
:0E00000000051F1FFF8385FF0FC00FE00F409C
:00000001FF
