:0400000057EF09F0BD
:10080000000A456E74657265643A202564000A200A
:100810005049435400001FC037F020C038F021C0B9
:1008200039F022C03AF023C03BF024C03CF025C090
:100830003DF026C03EF03EBE20EF04F023EF04F072
:10084000010E24EF04F0000E356E366A3550361076
:10085000D8B42DEF04F02FEF04F03FEF04F03E1E6C
:100860003D1E3C1E3B1E3A1E391E381E376C000EC4
:10087000382239223A223B223C223D223E220001EC
:1008800065BF45EF04F047EF04F048EF04F06693CE
:1008900065BF55EF04F0655106E16405D8B053EF2C
:1008A00004F055EF04F05BEF04F0000E326E010E21
:1008B000316E5FEF04F064C031F065C032F062C0A9
:1008C00033F063C034F035503610D8A46AEF04F02A
:1008D0006CEF04F073EF04F066A571EF04F073EFB2
:1008E00004F076EF04F03306D8A03406000E406E14
:1008F0001F0E3F6E000E876FFAEF04F03F06D8A080
:100900004006680E3F24D96E000E4020DA6E37C0D4
:1009100001F038C002F039C003F03AC004F03BC027
:1009200005F03CC006F03DC007F03EC008F00A0EDE
:10093000096E000E0A6E000E0B6E000E0C6E000E9D
:100940000D6E000E0E6E000E0F6E000E106E1AEC85
:1009500007F001C027F002C028F003C029F004C04E
:100960002AF005C02BF006C02CF007C02DF008C0FF
:100970002EF027C013F029C014F009EC09F0135031
:10098000300FDF6E3106D8A032063306D8A0340609
:1009900037C001F038C002F039C003F03AC004F0AB
:1009A0003BC005F03CC006F03DC007F03EC008F07B
:1009B0000A0E096E000E0A6E000E0B6E000E0C6E13
:1009C000000E0D6E000E0E6E000E0F6E000E106EFD
:1009D00056EC06F001C037F002C038F003C039F021
:1009E00004C03AF005C03BF006C03CF007C03DF043
:1009F00008C03EF040BE05EF05F0405008E13F045E
:100A0000D8A005EF05F007EF05F038EF05F03750F7
:100A1000381039103A103B103C103D103E10D8A44D
:100A200014EF05F016EF05F07EEF04F032BE23EF71
:100A300005F0325006E13104D8B021EF05F023EF84
:100A400005F07EEF04F034BE2EEF05F0345008E1DF
:100A50003304D8A02EEF05F030EF05F038EF05F0A5
:100A6000000166B336EF05F038EF05F07EEF04F0D5
:100A700035503610D8A43FEF05F041EF05F049EFAF
:100A800005F0000166A547EF05F049EF05F067EFB7
:100A900005F03F06D8A0400635503610D8A453EFD5
:100AA00005F055EF05F05BEF05F0000E306E2B0EF4
:100AB0002F6E5FEF05F0000E306E2D0E2F6E680E5C
:100AC0003F24D96E000E4020DA6E2FC0DFFF1DC01C
:100AD00012F01EC013F0680E3F24146E000E40206A
:100AE000156E33C016F034C017F0CCEC07F012C00E
:100AF0001DF013C01EF0120043C0D9FF44C0DAFF3E
:100B0000DECFF6FFDDCFF7FF0800F550250AD8A4A9
:100B10008CEF05F08EEF05F03AEF06F043C0D9FFF9
:100B200044C0DAFFDE2A000EDD22000E0001636FF2
:100B3000000E626F62C066F063C067F06469656949
:100B400043C0D9FF44C0DAFFDECFF6FFDDCFF7FFA9
:100B50000800F550640AD8B4B0EF05F0B2EF05F024
:100B6000C4EF05F043C0D9FF44C0DAFFDECFF6FF83
:100B7000DDCFF7FF0800F550690AD8A4C2EF05F0F1
:100B8000C4EF05F004EF06F043C0D9FF44C0DAFF1C
:100B9000DE2A000EDD2245C0D9FF46C0DAFFDFCFD6
:100BA00047F0020EDE26DFCF48F0000EDD2247C000
:100BB000D9FF48C0DAFFDECF49F0DDCF4AF0000EA2
:100BC0004ABEFF0E4B6E4C6E4D6E4E6E4F6E506EAB
:100BD00041C01DF042C01EF049C01FF04AC020F0C5
:100BE0004BC021F04CC022F04DC023F04EC024F089
:100BF0004FC025F050C026F00BEC04F01DC041F0B2
:100C00001EC042F055EF06F043C0D9FF44C0DAFFE2
:100C1000DECFF6FFDDCFF7FF0800F550250AD8A498
:100C200014EF06F016EF06F02DEF06F043C0D9FFE3
:100C300044C0DAFFDE2A000EDD22000E036E250E10
:100C4000026E41C004F042C005F02FEC08F0000E27
:100C5000426E010E416E55EF06F043C0D9FF44C00D
:100C6000DAFFDE2A000EDD22000E426E000E416E1B
:100C700055EF06F043C0D9FF44C0DAFFDECFF6FFE0
:100C8000DDCFF7FF0800F550026E036A41C004F0A3
:100C900042C005F02FEC08F043C0D9FF44C0DAFF92
:100CA000DE2A000EDD2227EF06F01200000E126E83
:100CB00010BE5FEF06F05DEF06F071EF06F0101E5C
:100CC0000F1E0E1E0D1E0C1E0B1E0A1E096C000EA2
:100CD0000A220B220C220D220E220F221022010EBC
:100CE000126E08BE78EF06F076EF06F08AEF06F097
:100CF000081E071E061E051E041E031E021E016C92
:100D0000000E0222032204220522062207220822C4
:100D1000010E121A20EE13F0070EDE6AE806FDE25D
:100D200009500A100B100C100D100E100F1010109F
:100D3000D8B49DEF06F09FEF06F0F1EF06F0010E3C
:100D4000116EADEF06F0D89009360A360B360C3628
:100D50000D360E360F361036112A10AEB2EF06F0F1
:100D6000B4EF06F0A3EF06F0D8901336143615361C
:100D700016361736183619361A360950015C0A50DD
:100D800002580B5003580C5004580D5005580E5083
:100D900006580F50075810500858D8A0D2EF06F048
:100DA000D4EF06F0E5EF06F00950015E0A50025A52
:100DB0000B50035A0C50045A0D50055A0E50065A47
:100DC0000F50075A1050085A1380D89010320F3223
:100DD0000E320D320C320B320A320932112EB4EFC0
:100DE00006F01250D8B4F7EF06F0F9EF06F009EF6D
:100DF00007F01A1E191E181E171E161E151E141E89
:100E0000136C000E14221522162217221822192202
:100E10001A2213C001F014C002F015C003F016C06E
:100E200004F017C005F018C006F019C007F01AC08A
:100E300008F01200000E126E08BE23EF07F021EF3B
:100E400007F035EF07F0081E071E061E051E041EDC
:100E5000031E021E016C000E022203220422052240
:100E6000062207220822010E126E10BE3CEF07F088
:100E70003AEF07F04CEF07F0101E0F1E0E1E0D1E6E
:100E80000C1E0B1E0A1E096C000E0A220B220C22DD
:100E90000D220E220F22102209500A100B100C10E6
:100EA0000D100E100F101010D8B459EF07F05BEFB3
:100EB00007F0A3EF07F0010E116E69EF07F0D8906D
:100EC00009360A360B360C360D360E360F3610360E
:100ED000112A10AE6EEF07F070EF07F05FEF07F02A
:100EE0000950015C0A5002580B5003580C5004582A
:100EF0000D5005580E5006580F50075810500858FE
:100F0000D8A085EF07F087EF07F097EF07F00950BB
:100F1000015E0A50025A0B50035A0C50045A0D50ED
:100F2000055A0E50065A0F50075A1050085AD890BA
:100F300010320F320E320D320C320B320A320932BD
:100F4000112E70EF07F01250D8B4A9EF07F0ABEFF5
:100F500007F0BBEF07F0081E071E061E051E041E45
:100F6000031E021E016C000E02220322042205222F
:100F700006220722082201C001F002C002F003C0CD
:100F800003F004C004F005C005F006C006F007C079
:100F900007F008C008F01200000166A1D2EF07F0C8
:100FA000D4EF07F0DEEF07F014C00BF015C00CF023
:100FB00012C00DF013C00EF0E7EC08F017BEE3EF1F
:100FC00007F0E5EF07F0EBEF07F016C01BF017C0D6
:100FD0001CF0EFEF07F0000E1C6E000E1B6E000EF3
:100FE0001A6E000E196E01EF08F0000E036E200E4F
:100FF000026E12C004F013C005F02FEC08F0194A7D
:101000001A2A1B50195C1A50800A186E1C50800A4C
:101010001858D8A00EEF08F010EF08F0F5EF07F021
:10102000000166B116EF08F018EF08F022EF08F0A3
:1010300014C00BF015C00CF012C00DF013C00EF070
:10104000E7EC08F014C001F015C002F029EC09F03B
:101050001B500124126E1C500220136E120004500B
:101060000510D8B436EF08F038EF08F041EF08F07B
:1010700004500510D8A43FEF08F041EF08F046EF08
:1010800008F0025064EC09F079EF08F020EE09F066
:101090000450D9260550DA22DE50DE10D8B453EFC2
:1010A00008F055EF08F070EF08F020EE09F004505A
:1010B000D9260550DA2210EE03F00450E12605503F
:1010C000E222DE50E65CE650800A0A6EDE50800ABC
:1010D0000A58D8B06EEF08F070EF08F079EF08F01A
:1010E00020EE03F00450D9260550DA22DE2A000E45
:1010F000DD221200000E946E200EAC6E900EAB6ED0
:10110000060EAF6E948E0E0E596E080E5A6E44EC9B
:1011100009F0AECF88F00001896B89BF98EF08F025
:10112000895108E18805D8A098EF08F09AEF08F0F7
:1011300083EF08F089BFA8EF08F0895107E10A0E94
:10114000885DD8B0A6EF08F0A8EF08F083EF08F0AC
:10115000010E596E080E5A6E88C05BF089C05CF0B3
:1011600044EC09F0B2EF08F000EF00F053C057F084
:1011700054C058F0000E0001616F000E606FD4EF94
:1011800008F051C041F052C042F0570E436E000EBD
:10119000446E55C045F056C046F07CEC05F0415019
:1011A000000160274250612357C0F6FF58C0F7FF87
:1011B0000800F5500009D8A4E0EF08F0E2EF08F0CD
:1011C000C1EF08F060C051F061C052F01200000E93
:1011D000116E000E106EF8EF08F00FC002F0036AF7
:1011E0000DC004F00EC005F02FEC08F0104A112AD3
:1011F00010500B24D96E11500C20DA6EDF500F6E98
:101200000F50D8A406EF09F008EF09F0EDEF08F051
:10121000120014BE16EF09F0145006E11304D8B002
:1012200014EF09F016EF09F024EF09F013C015F0E0
:1012300014C016F0151E161E154A162A15C013F0F6
:1012400016C014F028EF09F013C013F014C014F006
:10125000120001C003F002C004F031EF09F0014AAE
:10126000022A01C0D9FF02C0DAFFDF50D8A43BEF49
:1012700009F03DEF09F02FEF09F00350015C016E1A
:1012800004500258026E12005B0E5D6E000E5E6E20
:10129000000E516E000E526E59C053F05AC054F0F9
:1012A0005D0E556E000E566EB6EC08F0120000EEA4
:1012B00060F0280EEE6AE806FDE1000EF86E080EFA
:1012C000F76E00017AEF08F0016E9EA86AEF09F050
:0E12D0006CEF09F065EF09F001C0ADFF1200F0
:020000040020DA
:08000000FFFFFFFFFFFFFFFF00
:020000040030CA
:0E00000000051F1FFF8385FF0FC00FE00F409C
:00000001FF
