:0400000007EF00F016
:10000800048209ED00F049EF00F006009EA00FEF12
:1000180000F011EF00F036EF00F09E90014A022A3E
:10002800E80E011807E1030E0218D8A41EEF00F02D
:1000380020EF00F036EF00F089BA25EF00F028EF46
:1000480000F0010E29EF00F0000EFF0A036E033ADC
:10005800034689500318DF0B0318896E000E026EE1
:10006800000E016E04921100929A899A000ECD6ECC
:10007800F28EF28C9D80000ECF6E000ECE6E9E909A
:10008800CD8045EF00F007EF00F0026A016A0490A6
:080098000492000138EF00F0B2
:020000040020DA
:08000000FFFFFFFFFFFFFFFF00
:020000040030CA
:0E00000000051F1FFF8385FF0FC00FE00F409C
:00000001FF
